:100000000C9434000C943E000C943E000C943E0082
:100010000C943E000C943E000C943E000C943E0068
:100020000C943E000C943E000C943E000C943E0058
:100030000C943E000C943E000C943E000C943E0048
:100040000C943E000C943E000C943E000C943E0038
:100050000C943E000C943E000C943E000C943E0028
:100060000C943E000C943E0011241FBECFEFD8E04C
:10007000DEBFCDBF0E94DA000C946C040C9400002B
:10008000EAE7F0E0808187608083ACE7B0E08C91A4
:1000900080648C9380818068808380818064808389
:1000A000089590917C00907F90937C0090917C00CB
:1000B000892B80937C0080917A00806480937A0001
:1000C00080917A0086FDFCCF809178009091790034
:1000D00008951092C50083E08093C40088E1809366
:1000E000C10086E08093C20008959091C00095FF02
:1000F000FCCF8093C60008958F929F92AF92BF92DB
:10010000CF92DF92EF92FF92CF93DF93EB016901E1
:100110007A01BC0180E090E00E945D034B015C012C
:10012000BE0180E090E00E945D03A50194010E9461
:10013000C1029B01AC01C701B6010E94EB039B0108
:10014000AC01C501B4010E94C2020E942E03CB0182
:10015000DF91CF91FF90EF90DF90CF90BF90AF9065
:100160009F908F900895CF93DF93EC0180E3C83E7A
:1001700093E0D90720F0C85ED3408F5FF8CF0E948C
:10018000750080E3C436D10520F0C456D1098F5FD5
:10019000F9CF0E94750080E3CA30D10518F02A9784
:1001A0008F5FFACF0E9475008C2F805DDF91CF9119
:1001B0000C947500CF93DF93CDB7DEB7EA970FB6F7
:1001C000F894DEBF0FBECDBF0E9440000E946900C0
:1001D0004FEF53E05E8F4D8F8FEF93E09C8F8B8FAF
:1001E0005A8F498F988F8F8B1E8A1D8A1CAA1BAA33
:1001F0001A8619861AAA19AA1C8A1B8A18AA1FA667
:1002000018861F821EA61DA61A8A198A1CA61BA65E
:100210001E821D821AA619A6188A1F8618A61FA25A
:100220001C821B821EA21DA2212C312CA12CB12CC0
:100230001AAE19AEC12CD12C612C712C1C861B86D8
:10024000412C512C00E010E083E0E82EF12C80E0FE
:100250000E945100BC0181E06DAB7EAB0E94510059
:100260004C0182E00E9451009A83898383E00E94BE
:1002700051009E878D8726E636E646E65FE36DA948
:100280007EA9C2010E947C0098A38F8F26E636E6E5
:1002900046E65FE3B401C3010E947C009AA389A3F0
:1002A00026E636E646E65FE369817A8189AD9AAD56
:1002B0000E947C009CA38BA326E636E646E65FE31D
:1002C0006D857E85C1010E947C009E878D87041507
:1002D000150528F44F8D58A14415550578F04016A2
:1002E000510678F48F8D98A14B815C815A834983A4
:1002F0004816590650F4588E4F8A07C05A824982D0
:1003000004C08B819C819A8389838B859C8586150B
:10031000970528F449A15AA14615570578F08B8511
:100320009C856816790660F449A15AA12D813E8109
:100330006416750638F47A8E698E04C0930102C083
:100340002D813E8189AD9AADC816D90628F44BA1FE
:100350005CA14817590778F089AD9AAD8C159D05B9
:1003600068F44BA15CA10F8118858417950740F4B0
:100370009C8F8B8F05C009AD1AAD02C00F81188507
:10038000A214B30428F44D855E854215530568F028
:100390002A143B0460F44D855E8589849A84241672
:1003A000350638F43E8E2D8E04C0410102C089848A
:1003B0009A8489819A814B815C81840F951F4DA11C
:1003C0005EA1840F951FB7010E9458045B018F89BD
:1003D000988D4F855889840F951F4FA158A5840F7C
:1003E000951FB7010E945804A61AB70A8D819E81F5
:1003F000820F931F49A55AA5840F951FB7010E942C
:1004000058046B01898D9A8D49895A89840F951FEB
:100410004BA55CA5840F951FB7010E945804C61A0E
:10042000D70A8F819885800F911F4DA55EA5840FF7
:10043000951FB7010E945804FB018B8D9C8D4B8941
:100440005C89840F951F4FA558A9840F951FB7018C
:100450000E945804AF01461B570B5C874B87898568
:100460009A85880D991D49A95AA9840F951FB7012E
:100470000E945804FB018D8D9E8D4D895E89840FED
:10048000951F4BA95CA9840F951FB7010E945804C2
:10049000CF01861B970BBC0181E32FAB38AF6DAB4F
:1004A0007EAB0E94750080E20E947500C5010E942B
:1004B000B30080E20E947500C6010E94B30080E292
:1004C0000E9475008B859C850E94B30080E20E948B
:1004D00075006DA97EA9CB010E94B3008DE00E943A
:1004E00075008AE00E9475004D895E895CAB4BAB5C
:1004F0008D8D9E8D9E8B8D8B49855A855AAB49ABD0
:100500009A8689868B899C8998AB8FA74B8D5C8D49
:100510005C8B4B8B8F8198859EA78DA718870F8347
:1005200049895A895CA74BA7898D9A8D9A8B898BAB
:100530004D815E815AA749A72FA938AD3E832D83EF
:100540008F85988998A78FA34F89588D588B4F878F
:100550008B819C819EA38DA349815A815C834B83AF
:1005600051012D843E84C9ACDAAC8BA19CA19AAF19
:1005700089AF7C866B8669A07AA082014F8C58A0D7
:1005800066CE5058BB27AA270E94D9020C94B1030B
:100590000E94A30338F00E94AA0320F039F49F3F81
:1005A00019F426F40C94A0030EF4E095E7FB0C94E8
:1005B0009A03E92F0E94C20358F3BA176207730720
:1005C0008407950720F079F4A6F50C94E4030EF463
:1005D000E0950B2EBA2FA02D0B01B90190010C0153
:1005E000CA01A0011124FF27591B99F0593F50F46B
:1005F000503E68F11A16F040A22F232F342F4427C3
:10060000585FF3CF469537952795A795F0405395BA
:10061000C9F77EF41F16BA0B620B730B840BBAF08A
:100620009150A1F0FF0FBB1F661F771F881FC2F7F5
:100630000EC0BA0F621F731F841F48F48795779509
:100640006795B795F7959E3F08F0B0CF9395880FC3
:1006500008F09927EE0F9795879508950E94CA0391
:1006600088F09F5798F0B92F9927B751B0F0E1F073
:10067000660F771F881F991F1AF0BA95C9F714C023
:10068000B13091F00E94E403B1E008950C94E403CA
:10069000672F782F8827B85F39F0B93FCCF386955C
:1006A00077956795B395D9F73EF4909580957095B9
:1006B00061957F4F8F4F9F4F0895E89409C097FB36
:1006C0003EF490958095709561957F4F8F4F9F4F29
:1006D0009923A9F0F92F96E9BB279395F69587956D
:1006E00077956795B795F111F8CFFAF4BB0F11F430
:1006F00060FF1BC06F5F7F4F8F4F9F4F16C08823D7
:1007000011F096E911C0772321F09EE8872F762F0C
:1007100005C0662371F096E8862F70E060E02AF04D
:100720009A95660F771F881FDAF7880F9695879539
:1007300097F9089597F99F6780E870E060E0089561
:100740009FEF80EC089500240A94161617061806E9
:100750000906089500240A941216130614060506C5
:100760000895092E0394000C11F4882352F0BB0F56
:1007700040F4BF2B11F460FF04C06F5F7F4F8F4FB9
:100780009F4F089557FD9058440F551F59F05F3FF4
:1007900071F04795880F97FB991F61F09F3F79F0A3
:1007A00087950895121613061406551FF2CF469525
:1007B000F1DF08C0161617061806991FF1CF8695A7
:1007C0007105610508940895E894BB27662777278B
:1007D000CB0197F908950E94FE030C94B1030E9487
:1007E000A30338F00E94AA0320F0952311F00C9483
:1007F0009A030C94A00311240C94E5030E94C203F5
:1008000070F3959FC1F3950F50E0551F629FF00163
:10081000729FBB27F00DB11D639FAA27F00DB11D7C
:10082000AA1F649F6627B00DA11D661F829F222705
:10083000B00DA11D621F739FB00DA11D621F839F8C
:10084000A00D611D221F749F3327A00D611D231F62
:10085000849F600D211D822F762F6A2F11249F57B0
:1008600050409AF0F1F088234AF0EE0FFF1FBB1FB3
:10087000661F771F881F91505040A9F79E3F510572
:1008800080F00C949A030C94E5035F3FE4F3983EE8
:10089000D4F3869577956795B795F795E7959F5F1C
:1008A000C1F7FE2B880F911D9695879597F90895AE
:1008B000AA1BBB1B51E107C0AA1FBB1FA617B70786
:1008C00010F0A61BB70B881F991F5A95A9F78095A2
:0C08D0009095BC01CD010895F894FFCF75
:00000001FF
